{
  "_format": "hh-sol-artifact-1",
  "contractName": "Transactions",
  "sourceName": "contracts/Transactions.sol",
  "abi": [
    {
      "anonymous": false,
      "inputs": [
        {
          "indexed": false,
          "internalType": "address",
          "name": "sender",
          "type": "address"
        },
        {
          "indexed": false,
          "internalType": "address",
          "name": "receiver",
          "type": "address"
        },
        {
          "indexed": false,
          "internalType": "uint256",
          "name": "amount",
          "type": "uint256"
        },
        {
          "indexed": false,
          "internalType": "string",
          "name": "message",
          "type": "string"
        },
        {
          "indexed": false,
          "internalType": "uint256",
          "name": "timestamp",
          "type": "uint256"
        },
        {
          "indexed": false,
          "internalType": "string",
          "name": "keyword",
          "type": "string"
        }
      ],
      "name": "Transfer",
      "type": "event"
    },
    {
      "inputs": [
        {
          "internalType": "address payable",
          "name": "sender",
          "type": "address"
        },
        {
          "internalType": "address",
          "name": "receiver",
          "type": "address"
        },
        {
          "internalType": "uint256",
          "name": "amount",
          "type": "uint256"
        },
        {
          "internalType": "string",
          "name": "message",
          "type": "string"
        },
        {
          "internalType": "string",
          "name": "keyword",
          "type": "string"
        }
      ],
      "name": "publishTransaction",
      "outputs": [],
      "stateMutability": "nonpayable",
      "type": "function"
    }
  ],
  "bytecode": "0x608060405234801561001057600080fd5b506104db806100206000396000f3fe608060405234801561001057600080fd5b506004361061002b5760003560e01c80632124359114610030575b600080fd5b61004a6004803603810190610045919061013b565b61004c565b005b7f416cfa4330a4565f45c2fd2dd4826a83a37443aba2ce6f79477c7355afac35fa85858585428660405161008596959493929190610248565b60405180910390a15050505050565b60006100a76100a2846102dc565b6102b7565b9050828152602081018484840111156100bf57600080fd5b6100ca8482856103ad565b509392505050565b6000813590506100e181610460565b92915050565b6000813590506100f681610477565b92915050565b600082601f83011261010d57600080fd5b813561011d848260208601610094565b91505092915050565b6000813590506101358161048e565b92915050565b600080600080600060a0868803121561015357600080fd5b6000610161888289016100e7565b9550506020610172888289016100d2565b945050604061018388828901610126565b935050606086013567ffffffffffffffff8111156101a057600080fd5b6101ac888289016100fc565b925050608086013567ffffffffffffffff8111156101c957600080fd5b6101d5888289016100fc565b9150509295509295909350565b6101eb81610377565b82525050565b6101fa81610329565b82525050565b600061020b8261030d565b6102158185610318565b93506102258185602086016103bc565b61022e8161044f565b840191505092915050565b6102428161036d565b82525050565b600060c08201905061025d60008301896101e2565b61026a60208301886101f1565b6102776040830187610239565b81810360608301526102898186610200565b90506102986080830185610239565b81810360a08301526102aa8184610200565b9050979650505050505050565b60006102c16102d2565b90506102cd82826103ef565b919050565b6000604051905090565b600067ffffffffffffffff8211156102f7576102f6610420565b5b6103008261044f565b9050602081019050919050565b600081519050919050565b600082825260208201905092915050565b60006103348261034d565b9050919050565b60006103468261034d565b9050919050565b600073ffffffffffffffffffffffffffffffffffffffff82169050919050565b6000819050919050565b600061038282610389565b9050919050565b60006103948261039b565b9050919050565b60006103a68261034d565b9050919050565b82818337600083830152505050565b60005b838110156103da5780820151818401526020810190506103bf565b838111156103e9576000848401525b50505050565b6103f88261044f565b810181811067ffffffffffffffff8211171561041757610416610420565b5b80604052505050565b7f4e487b7100000000000000000000000000000000000000000000000000000000600052604160045260246000fd5b6000601f19601f8301169050919050565b61046981610329565b811461047457600080fd5b50565b6104808161033b565b811461048b57600080fd5b50565b6104978161036d565b81146104a257600080fd5b5056fea26469706673582212206231f91ede87c866dd5629c3a6dc87026a6c05628bc3244eae9444d1e15820fc64736f6c63430008040033",
  "linkReferences": {},
  "deployedLinkReferences": {}
}